:100000000C94FE000C9408010C9408010C94080157
:100010000C9408010C9408010C9408010C9408013C
:100020000C9408010C9408010C9408010C9408012C
:100030000C9408010C9408010C9408010C9408011C
:100040000C9408010C9408010C9408010C9408010C
:100050000C9408010C9408010C9408010C940801FC
:100060000C9408010C9408010C9408010C940801EC
:100070000C9408010C9408010C9408010C940801DC
:100080000C9408010C9408010C9408010C940801CC
:100090000C9408010C9408010C9408010C940801BC
:1000A0000C9408010C9408010C9408010C9457015D
:1000B0000C9469010C9408010C9408010C9408013B
:1000C0000C9408010C9408010C9408010C9408018C
:1000D0000C9408010C9408010C9408010C9408017C
:1000E0000C9408010C9408010C9408010C9408016C
:1000F0000C9408010C9408010C9408010C9408015C
:100100000C9408010C9408010C9408010C9408014B
:100110000C9408010C9408010C9408010C9408013B
:100120000C9408010C9408010C9408010C9408012B
:100130000C9408010C9408010C9408010C9408011B
:100140000C9408010C9408010C9408010C9408010B
:100150000C9408010C9408010C9408010C940801FB
:100160000C9408010C9408010C9408010C940801EB
:100170000C9408010C9408010C9408010C940801DB
:100180000C9408010C9408010C9408010C940801CB
:100190000C9408010C9408010C9408010C940801BB
:1001A0000C9408010C9408010C9408010C940801AB
:1001B0000C9408010C9408010C9408010C9408019B
:1001C0000C9408010C9408010C9408010C9408018B
:1001D0000C9408010C9408010C9408010C9408017B
:1001E0000C9408010C9408010C9408010C9408016B
:1001F0000C9408010C9408010C94080111241FBEF2
:10020000CFEFCDBFD7E2DEBF0E9487010C9403027F
:100210000C94000082E0809350008091510081FF97
:10022000FCCF88ED84BF81E0809340000895E0EB2F
:10023000F0E080E3828384E0838381E088BB0895DB
:100240008CE0E0E4F0E08183E0E0F2E084E08483AD
:1002500083E082A381E0868390E191831282809A79
:1002600080A311A2138280830895E0E4F6E088E081
:1002700080838483E0EAF8E017828FEC8683138220
:1002800083E0858388E184830895E0E8F6E088E1EF
:10029000818B8AE1828B82E0828784E0838785E09C
:1002A000818781E0E0EAF0E08283789408951F92EC
:1002B0000F920FB60F9211248F939F9389B391E001
:1002C000892789BB9F918F910F900FBE0F901F9030
:1002D00018951F920F920FB60F92112419BA0F9012
:1002E0000FBE0F901F9018959091A10895FFFCCF1D
:1002F0008093A0080895CF93DF93EC018991882320
:1003000019F00E947401FACFDF91CF910895CF9335
:10031000DF93CDB7DEB72797CDBFDEBF0E940A01BE
:100320000E9417010E9420010E9435010E94450190
:1003300011E0809120028068809320028091060263
:1003400080FFFCCF10930602809124029091250239
:100350004AE050E0BE016F5F7F4F0E94C301CE01B3
:1003600001960E947B018DE00E9474018AE00E9448
:1003700074012FEF83EC99E0215080409040E1F729
:1003800000C00000D6CF4532510520F4423010F0B5
:100390000C94CE01FB011082CB010895BB274A309B
:1003A00031F4992322F4BDE2909581959F4F0C94EE
:1003B000DA01BB27FB015527AA27880F991FAA1F1F
:1003C000A41710F0A41B83955051B9F7A05DAA3370
:1003D00008F0A95DA193009779F7B111B19311923B
:1003E000CB010C94F301DC01FC01672F71917723A1
:1003F000E1F7329704C07C916D9370836291AE17E0
:0A040000BF07C8F30895F894FFCF7A
:00000001FF
